{"bytecode":"60c060405234801561001057600080fd5b506040516110b03803806110b083398101604081905261002f91610060565b6001600081905580546001600160a01b0319166001600160a01b03929092169190911790553360805260a05261009d565b6000806040838503121561007357600080fd5b825160208401519092506001600160a01b038116811461009257600080fd5b809150509250929050565b60805160a051610fd96100d76000396000818161012f01528181610b9a0152610c7d0152600081816101080152610c570152610fd96000f3fe608060405234801561001057600080fd5b50600436106100935760003560e01c806365e17c9d1161006657806365e17c9d146101035780637fd6f15c1461012a578063a9b07c261461015f578063b9a2de3a14610168578063de74e57b1461017b57600080fd5b8063305a67a8146100985780633fc8cef3146100ad57806352b68b51146100dd578063598647f8146100f0575b600080fd5b6100ab6100a6366004610dd1565b610243565b005b6001546100c0906001600160a01b031681565b6040516001600160a01b0390911681526020015b60405180910390f35b6100ab6100eb366004610dea565b6103db565b6100ab6100fe366004610e43565b610687565b6100c07f000000000000000000000000000000000000000000000000000000000000000081565b6101517f000000000000000000000000000000000000000000000000000000000000000081565b6040519081526020016100d4565b61015160025481565b6100ab610176366004610dd1565b61092a565b6101ea610189366004610dd1565b6003602081905260009182526040909120805460018201546002830154938301546004840154600585015460068601546007870154600888015460099098015496989597959694956001600160a01b0394851695938516949293919216908a565b604080519a8b5260208b01999099529789019690965260608801949094526001600160a01b03928316608088015290821660a087015260c086015260e085019190915216610100830152610120820152610140016100d4565b6002600054141561026f5760405162461bcd60e51b815260040161026690610e65565b60405180910390fd5b60026000908155818152600360205260409020600581015460068201546001600160a01b0390911690600114806102aa575081600601546003145b6102f65760405162461bcd60e51b815260206004820152601860248201527f416374696f6e206973206e6f7420617574686f72697a656400000000000000006044820152606401610266565b60048201546001600160a01b0316331461030f57600080fd5b6004808301546001840154604051632142170760e11b81526001600160a01b03808616946342842e0e9461034b94309491909316929101610e9c565b600060405180830381600087803b15801561036557600080fd5b505af1158015610379573d6000803e3d6000fd5b5050600260068501555050600882015460048301546040518581526001600160a01b0392831692909116907f64b7c50e2baf5d660ebc21dad3aba0b8623fb19b2da78f6bc381b98661352d689060200160405180910390a35050600160005550565b600260005414156103fe5760405162461bcd60e51b815260040161026690610e65565b6002600055838510156104655760405162461bcd60e51b815260206004820152602960248201527f53746172742070726963652063616e6e6f7420626520686967686572207468616044820152686e207265736572766560b81b6064820152608401610266565b60018310156104c45760405162461bcd60e51b815260206004820152602560248201527f41756374696f6e206c656e677468206d757374206265206174206c6561737420604482015264312064617960d81b6064820152608401610266565b600280549060006104d483610ed6565b90915550506040516323b872dd60e01b81526001600160a01b038216906323b872dd9061050990339030908790600401610e9c565b600060405180830381600087803b15801561052357600080fd5b505af1158015610537573d6000803e3d6000fd5b505050506040518061014001604052806002548152602001838152602001868152602001858152602001336001600160a01b03168152602001826001600160a01b031681526020016001815260200184620151806105959190610ef1565b61059f9042610f10565b8152600060208083018290526040928301829052600280548352600380835284842086518155928601516001840155858501518383015560608601519083015560808501516004830180546001600160a01b039283166001600160a01b03199182161790915560a087015160058501805491841691831691909117905560c0870151600685015560e08701516007850155610100870151600885018054919093169116179055610120909401516009909101559154905133927ff4e4cd593fa99cef6b200fb8c03ceac5984743e70e112f4a2f035e79af3c0c5991a350506001600055505050565b600260005414156106aa5760405162461bcd60e51b815260040161026690610e65565b60026000908155828152600360205260409020600781015442106107045760405162461bcd60e51b8152602060048201526011602482015270105d58dd1a5bdb881a185cc8195b991959607a1b6044820152606401610266565b60038101546001546040516370a0823160e01b81523360048201526001600160a01b03909116906370a0823190602401602060405180830381865afa158015610751573d6000803e3d6000fd5b505050506040513d601f19601f820116820180604052508101906107759190610f28565b116107d75760405162461bcd60e51b815260206004820152602c60248201527f596f7520646f6e2774206861766520656e6f7567682045544820746f20636f7660448201526b65722074686973206269642160a01b6064820152608401610266565b806003015482116108405760405162461bcd60e51b815260206004820152602d60248201527f426964206d757374206265206d6f7265207468616e207468652063757272656e60448201526c742070726963652c206475682160981b6064820152608401610266565b806006015460011461089e5760405162461bcd60e51b815260206004820152602160248201527f54686973206974656d206973206e6f74206f70656e20666f722062696464696e6044820152606760f81b6064820152608401610266565b6008810180546001600160a01b03191633179055600381018290556009810180549060006108cb83610ed6565b9091555050600881015460048201546040518481526001600160a01b03928316929091169085907f4e5c6b65c5dafd32948148161de854b22fdec6140eb03adda94f0e76dd2104de906020015b60405180910390a45050600160005550565b6002600054141561094d5760405162461bcd60e51b815260040161026690610e65565b600260008181558281526003602081905260409091206005810154928101549181015490926001600160a01b03169111156109bc5760405162461bcd60e51b815260206004820152600f60248201526e14995cd95c9d99481b9bdd081b595d608a1b6044820152606401610266565b81600701544211610a0f5760405162461bcd60e51b815260206004820152601860248201527f41756374696f6e206973207374696c6c2072756e6e696e6700000000000000006044820152606401610266565b60088201546001600160a01b0316331480610a36575060048201546001600160a01b031633145b610a7a5760405162461bcd60e51b81526020600482015260156024820152741058dd1a5bdb881b9bdd08185d5d1a1bdc9a5e9959605a1b6044820152606401610266565b600382015460015460088401546040516370a0823160e01b81526001600160a01b0391821660048201529116906370a0823190602401602060405180830381865afa158015610acd573d6000803e3d6000fd5b505050506040513d601f19601f82011682018060405250810190610af19190610f28565b1015610b705760405162461bcd60e51b815260206004820152604260248201527f427579657220646f6573206e6f7420774554482062616c616e636520746f206360448201527f6f766572207468652073616c652070726963652c2073616c6520726576657274606482015261195960f21b608482015260a401610266565b600154600883015460048401546001600160a01b03928316926323b872dd9281169116610bbe60647f0000000000000000000000000000000000000000000000000000000000000000610f41565b610bc9906001610f63565b8660030154610bd89190610ef1565b6040518463ffffffff1660e01b8152600401610bf693929190610e9c565b6020604051808303816000875af1158015610c15573d6000803e3d6000fd5b505050506040513d601f19601f82011682018060405250810190610c399190610f7a565b5060015460088301546001600160a01b03918216916323b872dd91167f0000000000000000000000000000000000000000000000000000000000000000610ca160647f0000000000000000000000000000000000000000000000000000000000000000610f41565b8660030154610cb09190610ef1565b6040518463ffffffff1660e01b8152600401610cce93929190610e9c565b6020604051808303816000875af1158015610ced573d6000803e3d6000fd5b505050506040513d601f19601f82011682018060405250810190610d119190610f7a565b5060088201546001830154604051632142170760e11b81526001600160a01b03848116936342842e0e93610d4d93309390921691600401610e9c565b600060405180830381600087803b158015610d6757600080fd5b505af1158015610d7b573d6000803e3d6000fd5b50506002600685015550506004820154825460038401546040519081526001600160a01b03909216918291907f4ebd6ef39c1235e69ba7dedf24ad43bdeb57deb289d98473668070d6ca9b685e90602001610918565b600060208284031215610de357600080fd5b5035919050565b600080600080600060a08688031215610e0257600080fd5b8535945060208601359350604086013592506060860135915060808601356001600160a01b0381168114610e3557600080fd5b809150509295509295909350565b60008060408385031215610e5657600080fd5b50508035926020909101359150565b6020808252601f908201527f5265656e7472616e637947756172643a207265656e7472616e742063616c6c00604082015260600190565b6001600160a01b039384168152919092166020820152604081019190915260600190565b634e487b7160e01b600052601160045260246000fd5b6000600019821415610eea57610eea610ec0565b5060010190565b6000816000190483118215151615610f0b57610f0b610ec0565b500290565b60008219821115610f2357610f23610ec0565b500190565b600060208284031215610f3a57600080fd5b5051919050565b600082610f5e57634e487b7160e01b600052601260045260246000fd5b500490565b600082821015610f7557610f75610ec0565b500390565b600060208284031215610f8c57600080fd5b81518015158114610f9c57600080fd5b939250505056fea264697066735822122045179fc1ef938ce58e462108b06727c265152bdebbe14cf3d2e81b55c7cb6b2764736f6c634300080c0033","bytecodeSha1":"624f16ef7d7ca0d41eea0a7018b7cc7105444f23","type":"contract","abi":[{"inputs":[{"internalType":"uint256","name":"_feePercent","type":"uint256"},{"internalType":"address","name":"_weth","type":"address"}],"stateMutability":"nonpayable","type":"constructor","name":"constructor"},{"anonymous":false,"inputs":[{"indexed":true,"internalType":"uint256","name":"listingId","type":"uint256"},{"indexed":false,"internalType":"uint256","name":"bidPrice","type":"uint256"},{"indexed":true,"internalType":"address","name":"seller","type":"address"},{"indexed":true,"internalType":"address","name":"bidder","type":"address"}],"name":"Bid","type":"event"},{"anonymous":false,"inputs":[{"indexed":true,"internalType":"uint256","name":"listingId","type":"uint256"},{"indexed":false,"internalType":"uint256","name":"salePrice","type":"uint256"},{"indexed":true,"internalType":"address","name":"seller","type":"address"},{"indexed":true,"internalType":"address","name":"buyer","type":"address"}],"name":"Bought","type":"event"},{"anonymous":false,"inputs":[{"indexed":true,"internalType":"uint256","name":"listingId","type":"uint256"},{"indexed":true,"internalType":"address","name":"seller","type":"address"}],"name":"Listed","type":"event"},{"anonymous":false,"inputs":[{"indexed":false,"internalType":"uint256","name":"listingId","type":"uint256"},{"indexed":true,"internalType":"address","name":"seller","type":"address"},{"indexed":true,"internalType":"address","name":"buyer","type":"address"}],"name":"Reverted","type":"event"},{"inputs":[{"internalType":"uint256","name":"_listingId","type":"uint256"},{"internalType":"uint256","name":"_bidPrice","type":"uint256"}],"name":"bid","outputs":[],"stateMutability":"nonpayable","type":"function"},{"inputs":[{"internalType":"uint256","name":"_listingId","type":"uint256"}],"name":"cancelListing","outputs":[],"stateMutability":"nonpayable","type":"function"},{"inputs":[{"internalType":"uint256","name":"_reservePrice","type":"uint256"},{"internalType":"uint256","name":"_startPrice","type":"uint256"},{"internalType":"uint256","name":"_closingTime","type":"uint256"},{"internalType":"uint256","name":"_tokenId","type":"uint256"},{"internalType":"contract IERC721","name":"_nft","type":"address"}],"name":"createListing","outputs":[],"stateMutability":"nonpayable","type":"function"},{"inputs":[{"internalType":"uint256","name":"_listingId","type":"uint256"}],"name":"endAuction","outputs":[],"stateMutability":"nonpayable","type":"function"},{"inputs":[],"name":"feeAccount","outputs":[{"internalType":"address payable","name":"","type":"address"}],"stateMutability":"view","type":"function"},{"inputs":[],"name":"feePercent","outputs":[{"internalType":"uint256","name":"","type":"uint256"}],"stateMutability":"view","type":"function"},{"inputs":[],"name":"listingCount","outputs":[{"internalType":"uint256","name":"","type":"uint256"}],"stateMutability":"view","type":"function"},{"inputs":[{"internalType":"uint256","name":"","type":"uint256"}],"name":"listings","outputs":[{"internalType":"uint256","name":"listingId","type":"uint256"},{"internalType":"uint256","name":"tokenId","type":"uint256"},{"internalType":"uint256","name":"reservePrice","type":"uint256"},{"internalType":"uint256","name":"currentPrice","type":"uint256"},{"internalType":"address payable","name":"seller","type":"address"},{"internalType":"contract IERC721","name":"nft","type":"address"},{"internalType":"uint256","name":"auctionState","type":"uint256"},{"internalType":"uint256","name":"closingTime","type":"uint256"},{"internalType":"address payable","name":"buyer","type":"address"},{"internalType":"uint256","name":"bidCounter","type":"uint256"}],"stateMutability":"view","type":"function"},{"inputs":[],"name":"weth","outputs":[{"internalType":"contract IERC20","name":"","type":"address"}],"stateMutability":"view","type":"function"}],"compiler":{"version":"0.8.12+commit.f00d7308","evm_version":"istanbul","optimizer":{"enabled":true,"runs":200}},"contractName":"Marketplace","language":"Solidity","natspec":{"methods":{},"kind":"dev","version":1},"opcodes":"PUSH1 0x80 PUSH1 0x40 MSTORE CALLVALUE DUP1 ISZERO PUSH2 0x10 JUMPI PUSH1 0x0 DUP1 REVERT JUMPDEST POP PUSH1 0x4 CALLDATASIZE LT PUSH2 0x93 JUMPI PUSH1 0x0 CALLDATALOAD PUSH1 0xE0 SHR DUP1 PUSH4 0x65E17C9D GT PUSH2 0x66 JUMPI DUP1 PUSH4 0x65E17C9D EQ PUSH2 0x103 JUMPI DUP1 PUSH4 0x7FD6F15C EQ PUSH2 0x12A JUMPI DUP1 PUSH4 0xA9B07C26 EQ PUSH2 0x15F JUMPI DUP1 PUSH4 0xB9A2DE3A EQ PUSH2 0x168 JUMPI DUP1 PUSH4 0xDE74E57B EQ PUSH2 0x17B JUMPI PUSH1 0x0 DUP1 REVERT JUMPDEST DUP1 PUSH4 0x305A67A8 EQ PUSH2 0x98 JUMPI DUP1 PUSH4 0x3FC8CEF3 EQ PUSH2 0xAD JUMPI DUP1 PUSH4 0x52B68B51 EQ PUSH2 0xDD JUMPI DUP1 PUSH4 0x598647F8 EQ PUSH2 0xF0 JUMPI JUMPDEST PUSH1 0x0 DUP1 REVERT JUMPDEST PUSH2 0xAB PUSH2 0xA6 CALLDATASIZE PUSH1 0x4 PUSH2 0xDD1 JUMP JUMPDEST PUSH2 0x243 JUMP JUMPDEST STOP JUMPDEST PUSH1 0x1 SLOAD PUSH2 0xC0 SWAP1 PUSH1 0x1 PUSH1 0x1 PUSH1 0xA0 SHL SUB AND DUP2 JUMP JUMPDEST PUSH1 0x40 MLOAD PUSH1 0x1 PUSH1 0x1 PUSH1 0xA0 SHL SUB SWAP1 SWAP2 AND DUP2 MSTORE PUSH1 0x20 ADD JUMPDEST PUSH1 0x40 MLOAD DUP1 SWAP2 SUB SWAP1 RETURN JUMPDEST PUSH2 0xAB PUSH2 0xEB CALLDATASIZE PUSH1 0x4 PUSH2 0xDEA JUMP JUMPDEST PUSH2 0x3DB JUMP JUMPDEST PUSH2 0xAB PUSH2 0xFE CALLDATASIZE PUSH1 0x4 PUSH2 0xE43 JUMP JUMPDEST PUSH2 0x687 JUMP JUMPDEST PUSH2 0xC0 PUSH32 0x0 DUP2 JUMP JUMPDEST PUSH2 0x151 PUSH32 0x0 DUP2 JUMP JUMPDEST PUSH1 0x40 MLOAD SWAP1 DUP2 MSTORE PUSH1 0x20 ADD PUSH2 0xD4 JUMP JUMPDEST PUSH2 0x151 PUSH1 0x2 SLOAD DUP2 JUMP JUMPDEST PUSH2 0xAB PUSH2 0x176 CALLDATASIZE PUSH1 0x4 PUSH2 0xDD1 JUMP JUMPDEST PUSH2 0x92A JUMP JUMPDEST PUSH2 0x1EA PUSH2 0x189 CALLDATASIZE PUSH1 0x4 PUSH2 0xDD1 JUMP JUMPDEST PUSH1 0x3 PUSH1 0x20 DUP2 SWAP1 MSTORE PUSH1 0x0 SWAP2 DUP3 MSTORE PUSH1 0x40 SWAP1 SWAP2 KECCAK256 DUP1 SLOAD PUSH1 0x1 DUP3 ADD SLOAD PUSH1 0x2 DUP4 ADD SLOAD SWAP4 DUP4 ADD SLOAD PUSH1 0x4 DUP5 ADD SLOAD PUSH1 0x5 DUP6 ADD SLOAD PUSH1 0x6 DUP7 ADD SLOAD PUSH1 0x7 DUP8 ADD SLOAD PUSH1 0x8 DUP9 ADD SLOAD PUSH1 0x9 SWAP1 SWAP9 ADD SLOAD SWAP7 SWAP9 SWAP6 SWAP8 SWAP6 SWAP7 SWAP5 SWAP6 PUSH1 0x1 PUSH1 0x1 PUSH1 0xA0 SHL SUB SWAP5 DUP6 AND SWAP6 SWAP4 DUP6 AND SWAP5 SWAP3 SWAP4 SWAP2 SWAP3 AND SWAP1 DUP11 JUMP JUMPDEST PUSH1 0x40 DUP1 MLOAD SWAP11 DUP12 MSTORE PUSH1 0x20 DUP12 ADD SWAP10 SWAP1 SWAP10 MSTORE SWAP8 DUP10 ADD SWAP7 SWAP1 SWAP7 MSTORE PUSH1 0x60 DUP9 ADD SWAP5 SWAP1 SWAP5 MSTORE PUSH1 0x1 PUSH1 0x1 PUSH1 0xA0 SHL SUB SWAP3 DUP4 AND PUSH1 0x80 DUP9 ADD MSTORE SWAP1 DUP3 AND PUSH1 0xA0 DUP8 ADD MSTORE PUSH1 0xC0 DUP7 ADD MSTORE PUSH1 0xE0 DUP6 ADD SWAP2 SWAP1 SWAP2 MSTORE AND PUSH2 0x100 DUP4 ADD MSTORE PUSH2 0x120 DUP3 ADD MSTORE PUSH2 0x140 ADD PUSH2 0xD4 JUMP JUMPDEST PUSH1 0x2 PUSH1 0x0 SLOAD EQ ISZERO PUSH2 0x26F JUMPI PUSH1 0x40 MLOAD PUSH3 0x461BCD PUSH1 0xE5 SHL DUP2 MSTORE PUSH1 0x4 ADD PUSH2 0x266 SWAP1 PUSH2 0xE65 JUMP JUMPDEST PUSH1 0x40 MLOAD DUP1 SWAP2 SUB SWAP1 REVERT JUMPDEST PUSH1 0x2 PUSH1 0x0 SWAP1 DUP2 SSTORE DUP2 DUP2 MSTORE PUSH1 0x3 PUSH1 0x20 MSTORE PUSH1 0x40 SWAP1 KECCAK256 PUSH1 0x5 DUP2 ADD SLOAD PUSH1 0x6 DUP3 ADD SLOAD PUSH1 0x1 PUSH1 0x1 PUSH1 0xA0 SHL SUB SWAP1 SWAP2 AND SWAP1 PUSH1 0x1 EQ DUP1 PUSH2 0x2AA JUMPI POP DUP2 PUSH1 0x6 ADD SLOAD PUSH1 0x3 EQ JUMPDEST PUSH2 0x2F6 JUMPI PUSH1 0x40 MLOAD PUSH3 0x461BCD PUSH1 0xE5 SHL DUP2 MSTORE PUSH1 0x20 PUSH1 0x4 DUP3 ADD MSTORE PUSH1 0x18 PUSH1 0x24 DUP3 ADD MSTORE PUSH32 0x416374696F6E206973206E6F7420617574686F72697A65640000000000000000 PUSH1 0x44 DUP3 ADD MSTORE PUSH1 0x64 ADD PUSH2 0x266 JUMP JUMPDEST PUSH1 0x4 DUP3 ADD SLOAD PUSH1 0x1 PUSH1 0x1 PUSH1 0xA0 SHL SUB AND CALLER EQ PUSH2 0x30F JUMPI PUSH1 0x0 DUP1 REVERT JUMPDEST PUSH1 0x4 DUP1 DUP4 ADD SLOAD PUSH1 0x1 DUP5 ADD SLOAD PUSH1 0x40 MLOAD PUSH4 0x21421707 PUSH1 0xE1 SHL DUP2 MSTORE PUSH1 0x1 PUSH1 0x1 PUSH1 0xA0 SHL SUB DUP1 DUP7 AND SWAP5 PUSH4 0x42842E0E SWAP5 PUSH2 0x34B SWAP5 ADDRESS SWAP5 SWAP2 SWAP1 SWAP4 AND SWAP3 SWAP2 ADD PUSH2 0xE9C JUMP JUMPDEST PUSH1 0x0 PUSH1 0x40 MLOAD DUP1 DUP4 SUB DUP2 PUSH1 0x0 DUP8 DUP1 EXTCODESIZE ISZERO DUP1 ISZERO PUSH2 0x365 JUMPI PUSH1 0x0 DUP1 REVERT JUMPDEST POP GAS CALL ISZERO DUP1 ISZERO PUSH2 0x379 JUMPI RETURNDATASIZE PUSH1 0x0 DUP1 RETURNDATACOPY RETURNDATASIZE PUSH1 0x0 REVERT JUMPDEST POP POP PUSH1 0x2 PUSH1 0x6 DUP6 ADD SSTORE POP POP PUSH1 0x8 DUP3 ADD SLOAD PUSH1 0x4 DUP4 ADD SLOAD PUSH1 0x40 MLOAD DUP6 DUP2 MSTORE PUSH1 0x1 PUSH1 0x1 PUSH1 0xA0 SHL SUB SWAP3 DUP4 AND SWAP3 SWAP1 SWAP2 AND SWAP1 PUSH32 0x64B7C50E2BAF5D660EBC21DAD3ABA0B8623FB19B2DA78F6BC381B98661352D68 SWAP1 PUSH1 0x20 ADD PUSH1 0x40 MLOAD DUP1 SWAP2 SUB SWAP1 LOG3 POP POP PUSH1 0x1 PUSH1 0x0 SSTORE POP JUMP JUMPDEST PUSH1 0x2 PUSH1 0x0 SLOAD EQ ISZERO PUSH2 0x3FE JUMPI PUSH1 0x40 MLOAD PUSH3 0x461BCD PUSH1 0xE5 SHL DUP2 MSTORE PUSH1 0x4 ADD PUSH2 0x266 SWAP1 PUSH2 0xE65 JUMP JUMPDEST PUSH1 0x2 PUSH1 0x0 SSTORE DUP4 DUP6 LT ISZERO PUSH2 0x465 JUMPI PUSH1 0x40 MLOAD PUSH3 0x461BCD PUSH1 0xE5 SHL DUP2 MSTORE PUSH1 0x20 PUSH1 0x4 DUP3 ADD MSTORE PUSH1 0x29 PUSH1 0x24 DUP3 ADD MSTORE PUSH32 0x53746172742070726963652063616E6E6F742062652068696768657220746861 PUSH1 0x44 DUP3 ADD MSTORE PUSH9 0x6E2072657365727665 PUSH1 0xB8 SHL PUSH1 0x64 DUP3 ADD MSTORE PUSH1 0x84 ADD PUSH2 0x266 JUMP JUMPDEST PUSH1 0x1 DUP4 LT ISZERO PUSH2 0x4C4 JUMPI PUSH1 0x40 MLOAD PUSH3 0x461BCD PUSH1 0xE5 SHL DUP2 MSTORE PUSH1 0x20 PUSH1 0x4 DUP3 ADD MSTORE PUSH1 0x25 PUSH1 0x24 DUP3 ADD MSTORE PUSH32 0x41756374696F6E206C656E677468206D757374206265206174206C6561737420 PUSH1 0x44 DUP3 ADD MSTORE PUSH5 0x3120646179 PUSH1 0xD8 SHL PUSH1 0x64 DUP3 ADD MSTORE PUSH1 0x84 ADD PUSH2 0x266 JUMP JUMPDEST PUSH1 0x2 DUP1 SLOAD SWAP1 PUSH1 0x0 PUSH2 0x4D4 DUP4 PUSH2 0xED6 JUMP JUMPDEST SWAP1 SWAP2 SSTORE POP POP PUSH1 0x40 MLOAD PUSH4 0x23B872DD PUSH1 0xE0 SHL DUP2 MSTORE PUSH1 0x1 PUSH1 0x1 PUSH1 0xA0 SHL SUB DUP3 AND SWAP1 PUSH4 0x23B872DD SWAP1 PUSH2 0x509 SWAP1 CALLER SWAP1 ADDRESS SWAP1 DUP8 SWAP1 PUSH1 0x4 ADD PUSH2 0xE9C JUMP JUMPDEST PUSH1 0x0 PUSH1 0x40 MLOAD DUP1 DUP4 SUB DUP2 PUSH1 0x0 DUP8 DUP1 EXTCODESIZE ISZERO DUP1 ISZERO PUSH2 0x523 JUMPI PUSH1 0x0 DUP1 REVERT JUMPDEST POP GAS CALL ISZERO DUP1 ISZERO PUSH2 0x537 JUMPI RETURNDATASIZE PUSH1 0x0 DUP1 RETURNDATACOPY RETURNDATASIZE PUSH1 0x0 REVERT JUMPDEST POP POP POP POP PUSH1 0x40 MLOAD DUP1 PUSH2 0x140 ADD PUSH1 0x40 MSTORE DUP1 PUSH1 0x2 SLOAD DUP2 MSTORE PUSH1 0x20 ADD DUP4 DUP2 MSTORE PUSH1 0x20 ADD DUP7 DUP2 MSTORE PUSH1 0x20 ADD DUP6 DUP2 MSTORE PUSH1 0x20 ADD CALLER PUSH1 0x1 PUSH1 0x1 PUSH1 0xA0 SHL SUB AND DUP2 MSTORE PUSH1 0x20 ADD DUP3 PUSH1 0x1 PUSH1 0x1 PUSH1 0xA0 SHL SUB AND DUP2 MSTORE PUSH1 0x20 ADD PUSH1 0x1 DUP2 MSTORE PUSH1 0x20 ADD DUP5 PUSH3 0x15180 PUSH2 0x595 SWAP2 SWAP1 PUSH2 0xEF1 JUMP JUMPDEST PUSH2 0x59F SWAP1 TIMESTAMP PUSH2 0xF10 JUMP JUMPDEST DUP2 MSTORE PUSH1 0x0 PUSH1 0x20 DUP1 DUP4 ADD DUP3 SWAP1 MSTORE PUSH1 0x40 SWAP3 DUP4 ADD DUP3 SWAP1 MSTORE PUSH1 0x2 DUP1 SLOAD DUP4 MSTORE PUSH1 0x3 DUP1 DUP4 MSTORE DUP5 DUP5 KECCAK256 DUP7 MLOAD DUP2 SSTORE SWAP3 DUP7 ADD MLOAD PUSH1 0x1 DUP5 ADD SSTORE DUP6 DUP6 ADD MLOAD DUP4 DUP4 ADD SSTORE PUSH1 0x60 DUP7 ADD MLOAD SWAP1 DUP4 ADD SSTORE PUSH1 0x80 DUP6 ADD MLOAD PUSH1 0x4 DUP4 ADD DUP1 SLOAD PUSH1 0x1 PUSH1 0x1 PUSH1 0xA0 SHL SUB SWAP3 DUP4 AND PUSH1 0x1 PUSH1 0x1 PUSH1 0xA0 SHL SUB NOT SWAP2 DUP3 AND OR SWAP1 SWAP2 SSTORE PUSH1 0xA0 DUP8 ADD MLOAD PUSH1 0x5 DUP6 ADD DUP1 SLOAD SWAP2 DUP5 AND SWAP2 DUP4 AND SWAP2 SWAP1 SWAP2 OR SWAP1 SSTORE PUSH1 0xC0 DUP8 ADD MLOAD PUSH1 0x6 DUP6 ADD SSTORE PUSH1 0xE0 DUP8 ADD MLOAD PUSH1 0x7 DUP6 ADD SSTORE PUSH2 0x100 DUP8 ADD MLOAD PUSH1 0x8 DUP6 ADD DUP1 SLOAD SWAP2 SWAP1 SWAP4 AND SWAP2 AND OR SWAP1 SSTORE PUSH2 0x120 SWAP1 SWAP5 ADD MLOAD PUSH1 0x9 SWAP1 SWAP2 ADD SSTORE SWAP2 SLOAD SWAP1 MLOAD CALLER SWAP3 PUSH32 0xF4E4CD593FA99CEF6B200FB8C03CEAC5984743E70E112F4A2F035E79AF3C0C59 SWAP2 LOG3 POP POP PUSH1 0x1 PUSH1 0x0 SSTORE POP POP POP JUMP JUMPDEST PUSH1 0x2 PUSH1 0x0 SLOAD EQ ISZERO PUSH2 0x6AA JUMPI PUSH1 0x40 MLOAD PUSH3 0x461BCD PUSH1 0xE5 SHL DUP2 MSTORE PUSH1 0x4 ADD PUSH2 0x266 SWAP1 PUSH2 0xE65 JUMP JUMPDEST PUSH1 0x2 PUSH1 0x0 SWAP1 DUP2 SSTORE DUP3 DUP2 MSTORE PUSH1 0x3 PUSH1 0x20 MSTORE PUSH1 0x40 SWAP1 KECCAK256 PUSH1 0x7 DUP2 ADD SLOAD TIMESTAMP LT PUSH2 0x704 JUMPI PUSH1 0x40 MLOAD PUSH3 0x461BCD PUSH1 0xE5 SHL DUP2 MSTORE PUSH1 0x20 PUSH1 0x4 DUP3 ADD MSTORE PUSH1 0x11 PUSH1 0x24 DUP3 ADD MSTORE PUSH17 0x105D58DD1A5BDB881A185CC8195B991959 PUSH1 0x7A SHL PUSH1 0x44 DUP3 ADD MSTORE PUSH1 0x64 ADD PUSH2 0x266 JUMP JUMPDEST PUSH1 0x3 DUP2 ADD SLOAD PUSH1 0x1 SLOAD PUSH1 0x40 MLOAD PUSH4 0x70A08231 PUSH1 0xE0 SHL DUP2 MSTORE CALLER PUSH1 0x4 DUP3 ADD MSTORE PUSH1 0x1 PUSH1 0x1 PUSH1 0xA0 SHL SUB SWAP1 SWAP2 AND SWAP1 PUSH4 0x70A08231 SWAP1 PUSH1 0x24 ADD PUSH1 0x20 PUSH1 0x40 MLOAD DUP1 DUP4 SUB DUP2 DUP7 GAS STATICCALL ISZERO DUP1 ISZERO PUSH2 0x751 JUMPI RETURNDATASIZE PUSH1 0x0 DUP1 RETURNDATACOPY RETURNDATASIZE PUSH1 0x0 REVERT JUMPDEST POP POP POP POP PUSH1 0x40 MLOAD RETURNDATASIZE PUSH1 0x1F NOT PUSH1 0x1F DUP3 ADD AND DUP3 ADD DUP1 PUSH1 0x40 MSTORE POP DUP2 ADD SWAP1 PUSH2 0x775 SWAP2 SWAP1 PUSH2 0xF28 JUMP JUMPDEST GT PUSH2 0x7D7 JUMPI PUSH1 0x40 MLOAD PUSH3 0x461BCD PUSH1 0xE5 SHL DUP2 MSTORE PUSH1 0x20 PUSH1 0x4 DUP3 ADD MSTORE PUSH1 0x2C PUSH1 0x24 DUP3 ADD MSTORE PUSH32 0x596F7520646F6E2774206861766520656E6F7567682045544820746F20636F76 PUSH1 0x44 DUP3 ADD MSTORE PUSH12 0x657220746869732062696421 PUSH1 0xA0 SHL PUSH1 0x64 DUP3 ADD MSTORE PUSH1 0x84 ADD PUSH2 0x266 JUMP JUMPDEST DUP1 PUSH1 0x3 ADD SLOAD DUP3 GT PUSH2 0x840 JUMPI PUSH1 0x40 MLOAD PUSH3 0x461BCD PUSH1 0xE5 SHL DUP2 MSTORE PUSH1 0x20 PUSH1 0x4 DUP3 ADD MSTORE PUSH1 0x2D PUSH1 0x24 DUP3 ADD MSTORE PUSH32 0x426964206D757374206265206D6F7265207468616E207468652063757272656E PUSH1 0x44 DUP3 ADD MSTORE PUSH13 0x742070726963652C2064756821 PUSH1 0x98 SHL PUSH1 0x64 DUP3 ADD MSTORE PUSH1 0x84 ADD PUSH2 0x266 JUMP JUMPDEST DUP1 PUSH1 0x6 ADD SLOAD PUSH1 0x1 EQ PUSH2 0x89E JUMPI PUSH1 0x40 MLOAD PUSH3 0x461BCD PUSH1 0xE5 SHL DUP2 MSTORE PUSH1 0x20 PUSH1 0x4 DUP3 ADD MSTORE PUSH1 0x21 PUSH1 0x24 DUP3 ADD MSTORE PUSH32 0x54686973206974656D206973206E6F74206F70656E20666F722062696464696E PUSH1 0x44 DUP3 ADD MSTORE PUSH1 0x67 PUSH1 0xF8 SHL PUSH1 0x64 DUP3 ADD MSTORE PUSH1 0x84 ADD PUSH2 0x266 JUMP JUMPDEST PUSH1 0x8 DUP2 ADD DUP1 SLOAD PUSH1 0x1 PUSH1 0x1 PUSH1 0xA0 SHL SUB NOT AND CALLER OR SWAP1 SSTORE PUSH1 0x3 DUP2 ADD DUP3 SWAP1 SSTORE PUSH1 0x9 DUP2 ADD DUP1 SLOAD SWAP1 PUSH1 0x0 PUSH2 0x8CB DUP4 PUSH2 0xED6 JUMP JUMPDEST SWAP1 SWAP2 SSTORE POP POP PUSH1 0x8 DUP2 ADD SLOAD PUSH1 0x4 DUP3 ADD SLOAD PUSH1 0x40 MLOAD DUP5 DUP2 MSTORE PUSH1 0x1 PUSH1 0x1 PUSH1 0xA0 SHL SUB SWAP3 DUP4 AND SWAP3 SWAP1 SWAP2 AND SWAP1 DUP6 SWAP1 PUSH32 0x4E5C6B65C5DAFD32948148161DE854B22FDEC6140EB03ADDA94F0E76DD2104DE SWAP1 PUSH1 0x20 ADD JUMPDEST PUSH1 0x40 MLOAD DUP1 SWAP2 SUB SWAP1 LOG4 POP POP PUSH1 0x1 PUSH1 0x0 SSTORE POP JUMP JUMPDEST PUSH1 0x2 PUSH1 0x0 SLOAD EQ ISZERO PUSH2 0x94D JUMPI PUSH1 0x40 MLOAD PUSH3 0x461BCD PUSH1 0xE5 SHL DUP2 MSTORE PUSH1 0x4 ADD PUSH2 0x266 SWAP1 PUSH2 0xE65 JUMP JUMPDEST PUSH1 0x2 PUSH1 0x0 DUP2 DUP2 SSTORE DUP3 DUP2 MSTORE PUSH1 0x3 PUSH1 0x20 DUP2 SWAP1 MSTORE PUSH1 0x40 SWAP1 SWAP2 KECCAK256 PUSH1 0x5 DUP2 ADD SLOAD SWAP3 DUP2 ADD SLOAD SWAP2 DUP2 ADD SLOAD SWAP1 SWAP3 PUSH1 0x1 PUSH1 0x1 PUSH1 0xA0 SHL SUB AND SWAP2 GT ISZERO PUSH2 0x9BC JUMPI PUSH1 0x40 MLOAD PUSH3 0x461BCD PUSH1 0xE5 SHL DUP2 MSTORE PUSH1 0x20 PUSH1 0x4 DUP3 ADD MSTORE PUSH1 0xF PUSH1 0x24 DUP3 ADD MSTORE PUSH15 0x14995CD95C9D99481B9BDD081B595D PUSH1 0x8A SHL PUSH1 0x44 DUP3 ADD MSTORE PUSH1 0x64 ADD PUSH2 0x266 JUMP JUMPDEST DUP2 PUSH1 0x7 ADD SLOAD TIMESTAMP GT PUSH2 0xA0F JUMPI PUSH1 0x40 MLOAD PUSH3 0x461BCD PUSH1 0xE5 SHL DUP2 MSTORE PUSH1 0x20 PUSH1 0x4 DUP3 ADD MSTORE PUSH1 0x18 PUSH1 0x24 DUP3 ADD MSTORE PUSH32 0x41756374696F6E206973207374696C6C2072756E6E696E670000000000000000 PUSH1 0x44 DUP3 ADD MSTORE PUSH1 0x64 ADD PUSH2 0x266 JUMP JUMPDEST PUSH1 0x8 DUP3 ADD SLOAD PUSH1 0x1 PUSH1 0x1 PUSH1 0xA0 SHL SUB AND CALLER EQ DUP1 PUSH2 0xA36 JUMPI POP PUSH1 0x4 DUP3 ADD SLOAD PUSH1 0x1 PUSH1 0x1 PUSH1 0xA0 SHL SUB AND CALLER EQ JUMPDEST PUSH2 0xA7A JUMPI PUSH1 0x40 MLOAD PUSH3 0x461BCD PUSH1 0xE5 SHL DUP2 MSTORE PUSH1 0x20 PUSH1 0x4 DUP3 ADD MSTORE PUSH1 0x15 PUSH1 0x24 DUP3 ADD MSTORE PUSH21 0x1058DD1A5BDB881B9BDD08185D5D1A1BDC9A5E9959 PUSH1 0x5A SHL PUSH1 0x44 DUP3 ADD MSTORE PUSH1 0x64 ADD PUSH2 0x266 JUMP JUMPDEST PUSH1 0x3 DUP3 ADD SLOAD PUSH1 0x1 SLOAD PUSH1 0x8 DUP5 ADD SLOAD PUSH1 0x40 MLOAD PUSH4 0x70A08231 PUSH1 0xE0 SHL DUP2 MSTORE PUSH1 0x1 PUSH1 0x1 PUSH1 0xA0 SHL SUB SWAP2 DUP3 AND PUSH1 0x4 DUP3 ADD MSTORE SWAP2 AND SWAP1 PUSH4 0x70A08231 SWAP1 PUSH1 0x24 ADD PUSH1 0x20 PUSH1 0x40 MLOAD DUP1 DUP4 SUB DUP2 DUP7 GAS STATICCALL ISZERO DUP1 ISZERO PUSH2 0xACD JUMPI RETURNDATASIZE PUSH1 0x0 DUP1 RETURNDATACOPY RETURNDATASIZE PUSH1 0x0 REVERT JUMPDEST POP POP POP POP PUSH1 0x40 MLOAD RETURNDATASIZE PUSH1 0x1F NOT PUSH1 0x1F DUP3 ADD AND DUP3 ADD DUP1 PUSH1 0x40 MSTORE POP DUP2 ADD SWAP1 PUSH2 0xAF1 SWAP2 SWAP1 PUSH2 0xF28 JUMP JUMPDEST LT ISZERO PUSH2 0xB70 JUMPI PUSH1 0x40 MLOAD PUSH3 0x461BCD PUSH1 0xE5 SHL DUP2 MSTORE PUSH1 0x20 PUSH1 0x4 DUP3 ADD MSTORE PUSH1 0x42 PUSH1 0x24 DUP3 ADD MSTORE PUSH32 0x427579657220646F6573206E6F7420774554482062616C616E636520746F2063 PUSH1 0x44 DUP3 ADD MSTORE PUSH32 0x6F766572207468652073616C652070726963652C2073616C6520726576657274 PUSH1 0x64 DUP3 ADD MSTORE PUSH2 0x1959 PUSH1 0xF2 SHL PUSH1 0x84 DUP3 ADD MSTORE PUSH1 0xA4 ADD PUSH2 0x266 JUMP JUMPDEST PUSH1 0x1 SLOAD PUSH1 0x8 DUP4 ADD SLOAD PUSH1 0x4 DUP5 ADD SLOAD PUSH1 0x1 PUSH1 0x1 PUSH1 0xA0 SHL SUB SWAP3 DUP4 AND SWAP3 PUSH4 0x23B872DD SWAP3 DUP2 AND SWAP2 AND PUSH2 0xBBE PUSH1 0x64 PUSH32 0x0 PUSH2 0xF41 JUMP JUMPDEST PUSH2 0xBC9 SWAP1 PUSH1 0x1 PUSH2 0xF63 JUMP JUMPDEST DUP7 PUSH1 0x3 ADD SLOAD PUSH2 0xBD8 SWAP2 SWAP1 PUSH2 0xEF1 JUMP JUMPDEST PUSH1 0x40 MLOAD DUP5 PUSH4 0xFFFFFFFF AND PUSH1 0xE0 SHL DUP2 MSTORE PUSH1 0x4 ADD PUSH2 0xBF6 SWAP4 SWAP3 SWAP2 SWAP1 PUSH2 0xE9C JUMP JUMPDEST PUSH1 0x20 PUSH1 0x40 MLOAD DUP1 DUP4 SUB DUP2 PUSH1 0x0 DUP8 GAS CALL ISZERO DUP1 ISZERO PUSH2 0xC15 JUMPI RETURNDATASIZE PUSH1 0x0 DUP1 RETURNDATACOPY RETURNDATASIZE PUSH1 0x0 REVERT JUMPDEST POP POP POP POP PUSH1 0x40 MLOAD RETURNDATASIZE PUSH1 0x1F NOT PUSH1 0x1F DUP3 ADD AND DUP3 ADD DUP1 PUSH1 0x40 MSTORE POP DUP2 ADD SWAP1 PUSH2 0xC39 SWAP2 SWAP1 PUSH2 0xF7A JUMP JUMPDEST POP PUSH1 0x1 SLOAD PUSH1 0x8 DUP4 ADD SLOAD PUSH1 0x1 PUSH1 0x1 PUSH1 0xA0 SHL SUB SWAP2 DUP3 AND SWAP2 PUSH4 0x23B872DD SWAP2 AND PUSH32 0x0 PUSH2 0xCA1 PUSH1 0x64 PUSH32 0x0 PUSH2 0xF41 JUMP JUMPDEST DUP7 PUSH1 0x3 ADD SLOAD PUSH2 0xCB0 SWAP2 SWAP1 PUSH2 0xEF1 JUMP JUMPDEST PUSH1 0x40 MLOAD DUP5 PUSH4 0xFFFFFFFF AND PUSH1 0xE0 SHL DUP2 MSTORE PUSH1 0x4 ADD PUSH2 0xCCE SWAP4 SWAP3 SWAP2 SWAP1 PUSH2 0xE9C JUMP JUMPDEST PUSH1 0x20 PUSH1 0x40 MLOAD DUP1 DUP4 SUB DUP2 PUSH1 0x0 DUP8 GAS CALL ISZERO DUP1 ISZERO PUSH2 0xCED JUMPI RETURNDATASIZE PUSH1 0x0 DUP1 RETURNDATACOPY RETURNDATASIZE PUSH1 0x0 REVERT JUMPDEST POP POP POP POP PUSH1 0x40 MLOAD RETURNDATASIZE PUSH1 0x1F NOT PUSH1 0x1F DUP3 ADD AND DUP3 ADD DUP1 PUSH1 0x40 MSTORE POP DUP2 ADD SWAP1 PUSH2 0xD11 SWAP2 SWAP1 PUSH2 0xF7A JUMP JUMPDEST POP PUSH1 0x8 DUP3 ADD SLOAD PUSH1 0x1 DUP4 ADD SLOAD PUSH1 0x40 MLOAD PUSH4 0x21421707 PUSH1 0xE1 SHL DUP2 MSTORE PUSH1 0x1 PUSH1 0x1 PUSH1 0xA0 SHL SUB DUP5 DUP2 AND SWAP4 PUSH4 0x42842E0E SWAP4 PUSH2 0xD4D SWAP4 ADDRESS SWAP4 SWAP1 SWAP3 AND SWAP2 PUSH1 0x4 ADD PUSH2 0xE9C JUMP JUMPDEST PUSH1 0x0 PUSH1 0x40 MLOAD DUP1 DUP4 SUB DUP2 PUSH1 0x0 DUP8 DUP1 EXTCODESIZE ISZERO DUP1 ISZERO PUSH2 0xD67 JUMPI PUSH1 0x0 DUP1 REVERT JUMPDEST POP GAS CALL ISZERO DUP1 ISZERO PUSH2 0xD7B JUMPI RETURNDATASIZE PUSH1 0x0 DUP1 RETURNDATACOPY RETURNDATASIZE PUSH1 0x0 REVERT JUMPDEST POP POP PUSH1 0x2 PUSH1 0x6 DUP6 ADD SSTORE POP POP PUSH1 0x4 DUP3 ADD SLOAD DUP3 SLOAD PUSH1 0x3 DUP5 ADD SLOAD PUSH1 0x40 MLOAD SWAP1 DUP2 MSTORE PUSH1 0x1 PUSH1 0x1 PUSH1 0xA0 SHL SUB SWAP1 SWAP3 AND SWAP2 DUP3 SWAP2 SWAP1 PUSH32 0x4EBD6EF39C1235E69BA7DEDF24AD43BDEB57DEB289D98473668070D6CA9B685E SWAP1 PUSH1 0x20 ADD PUSH2 0x918 JUMP JUMPDEST PUSH1 0x0 PUSH1 0x20 DUP3 DUP5 SUB SLT ISZERO PUSH2 0xDE3 JUMPI PUSH1 0x0 DUP1 REVERT JUMPDEST POP CALLDATALOAD SWAP2 SWAP1 POP JUMP JUMPDEST PUSH1 0x0 DUP1 PUSH1 0x0 DUP1 PUSH1 0x0 PUSH1 0xA0 DUP7 DUP9 SUB SLT ISZERO PUSH2 0xE02 JUMPI PUSH1 0x0 DUP1 REVERT JUMPDEST DUP6 CALLDATALOAD SWAP5 POP PUSH1 0x20 DUP7 ADD CALLDATALOAD SWAP4 POP PUSH1 0x40 DUP7 ADD CALLDATALOAD SWAP3 POP PUSH1 0x60 DUP7 ADD CALLDATALOAD SWAP2 POP PUSH1 0x80 DUP7 ADD CALLDATALOAD PUSH1 0x1 PUSH1 0x1 PUSH1 0xA0 SHL SUB DUP2 AND DUP2 EQ PUSH2 0xE35 JUMPI PUSH1 0x0 DUP1 REVERT JUMPDEST DUP1 SWAP2 POP POP SWAP3 SWAP6 POP SWAP3 SWAP6 SWAP1 SWAP4 POP JUMP JUMPDEST PUSH1 0x0 DUP1 PUSH1 0x40 DUP4 DUP6 SUB SLT ISZERO PUSH2 0xE56 JUMPI PUSH1 0x0 DUP1 REVERT JUMPDEST POP POP DUP1 CALLDATALOAD SWAP3 PUSH1 0x20 SWAP1 SWAP2 ADD CALLDATALOAD SWAP2 POP JUMP JUMPDEST PUSH1 0x20 DUP1 DUP3 MSTORE PUSH1 0x1F SWAP1 DUP3 ADD MSTORE PUSH32 0x5265656E7472616E637947756172643A207265656E7472616E742063616C6C00 PUSH1 0x40 DUP3 ADD MSTORE PUSH1 0x60 ADD SWAP1 JUMP JUMPDEST PUSH1 0x1 PUSH1 0x1 PUSH1 0xA0 SHL SUB SWAP4 DUP5 AND DUP2 MSTORE SWAP2 SWAP1 SWAP3 AND PUSH1 0x20 DUP3 ADD MSTORE PUSH1 0x40 DUP2 ADD SWAP2 SWAP1 SWAP2 MSTORE PUSH1 0x60 ADD SWAP1 JUMP JUMPDEST PUSH4 0x4E487B71 PUSH1 0xE0 SHL PUSH1 0x0 MSTORE PUSH1 0x11 PUSH1 0x4 MSTORE PUSH1 0x24 PUSH1 0x0 REVERT JUMPDEST PUSH1 0x0 PUSH1 0x0 NOT DUP3 EQ ISZERO PUSH2 0xEEA JUMPI PUSH2 0xEEA PUSH2 0xEC0 JUMP JUMPDEST POP PUSH1 0x1 ADD SWAP1 JUMP JUMPDEST PUSH1 0x0 DUP2 PUSH1 0x0 NOT DIV DUP4 GT DUP3 ISZERO ISZERO AND ISZERO PUSH2 0xF0B JUMPI PUSH2 0xF0B PUSH2 0xEC0 JUMP JUMPDEST POP MUL SWAP1 JUMP JUMPDEST PUSH1 0x0 DUP3 NOT DUP3 GT ISZERO PUSH2 0xF23 JUMPI PUSH2 0xF23 PUSH2 0xEC0 JUMP JUMPDEST POP ADD SWAP1 JUMP JUMPDEST PUSH1 0x0 PUSH1 0x20 DUP3 DUP5 SUB SLT ISZERO PUSH2 0xF3A JUMPI PUSH1 0x0 DUP1 REVERT JUMPDEST POP MLOAD SWAP2 SWAP1 POP JUMP JUMPDEST PUSH1 0x0 DUP3 PUSH2 0xF5E JUMPI PUSH4 0x4E487B71 PUSH1 0xE0 SHL PUSH1 0x0 MSTORE PUSH1 0x12 PUSH1 0x4 MSTORE PUSH1 0x24 PUSH1 0x0 REVERT JUMPDEST POP DIV SWAP1 JUMP JUMPDEST PUSH1 0x0 DUP3 DUP3 LT ISZERO PUSH2 0xF75 JUMPI PUSH2 0xF75 PUSH2 0xEC0 JUMP JUMPDEST POP SUB SWAP1 JUMP JUMPDEST PUSH1 0x0 PUSH1 0x20 DUP3 DUP5 SUB SLT ISZERO PUSH2 0xF8C JUMPI PUSH1 0x0 DUP1 REVERT JUMPDEST DUP2 MLOAD DUP1 ISZERO ISZERO DUP2 EQ PUSH2 0xF9C JUMPI PUSH1 0x0 DUP1 REVERT JUMPDEST SWAP4 SWAP3 POP POP POP JUMP INVALID LOG2 PUSH5 0x6970667358 0x22 SLT KECCAK256 GASLIMIT OR SWAP16 0xC1 0xEF SWAP4 DUP13 0xE5 DUP15 CHAINID 0x21 ADDMOD 0xB0 PUSH8 0x27C265152BDEBBE1 0x4C RETURN 0xD2 0xE8 SHL SSTORE 0xC7 0xCB PUSH12 0x2764736F6C634300080C0033 ","sha1":"6cd0502c9fa64369a547def9f12e4045e7ed80a9","source":"// SPDX-License-Identifier: MIT\npragma solidity ^0.8.0;\n\nimport \"@openzeppelin/contracts/security/ReentrancyGuard.sol\";\nimport \"@openzeppelin/contracts/token/ERC721/IERC721.sol\";\nimport \"@openzeppelin/contracts/token/ERC20/IERC20.sol\";\n\ncontract Marketplace is ReentrancyGuard {\n    IERC20 public weth;\n    address payable public immutable feeAccount;\n    uint256 public immutable feePercent;\n    uint256 public listingCount;\n\n    struct Listing {\n        uint256 listingId;\n        uint256 tokenId;\n        uint256 reservePrice;\n        uint256 currentPrice;\n        address payable seller;\n        IERC721 nft;\n        uint256 auctionState;\n        uint256 closingTime;\n        address payable buyer;\n        uint256 bidCounter;\n    }\n\n    // auctionState legend: 1 = Open, 2 = Closed, 3 = Reverted\n\n    mapping(uint256 => Listing) public listings;\n\n    event Listed(uint256 indexed listingId, address indexed seller);\n\n    event Bid(\n        uint256 indexed listingId,\n        uint256 bidPrice,\n        address indexed seller,\n        address indexed bidder\n    );\n\n    event Bought(\n        uint256 indexed listingId,\n        uint256 salePrice,\n        address indexed seller,\n        address indexed buyer\n    );\n\n    event Reverted(\n        uint256 listingId,\n        address indexed seller,\n        address indexed buyer\n    );\n\n    constructor(uint256 _feePercent, address _weth) {\n        weth = IERC20(_weth);\n        feeAccount = payable(msg.sender);\n        feePercent = _feePercent;\n    }\n\n    function createListing(\n        uint256 _reservePrice,\n        uint256 _startPrice,\n        uint256 _closingTime,\n        uint256 _tokenId,\n        IERC721 _nft\n    ) external nonReentrant {\n        require(_reservePrice >= 0, \"Invalid reserve price\");\n        require(\n            _reservePrice >= _startPrice,\n            \"Start price cannot be higher than reserve\"\n        );\n        require(_closingTime >= (1), \"Auction length must be at least 1 day\");\n        listingCount++;\n        // setApprovalForAll is handled via front end before calling contract function\n        _nft.transferFrom(msg.sender, address(this), _tokenId);\n        listings[listingCount] = Listing(\n            listingCount,\n            _tokenId,\n            _reservePrice,\n            _startPrice,\n            payable(msg.sender),\n            _nft,\n            1,\n            (block.timestamp + (_closingTime * 1 days)),\n            payable(address(0)),\n            0\n        );\n        emit Listed(listingCount, msg.sender);\n    }\n\n    function bid(uint256 _listingId, uint256 _bidPrice) external nonReentrant {\n        Listing storage listing = listings[_listingId];\n        require(block.timestamp < listing.closingTime, \"Auction has ended\");\n        require(\n            weth.balanceOf(msg.sender) > listing.currentPrice,\n            \"You don't have enough ETH to cover this bid!\"\n        );\n        require(\n            _bidPrice > listing.currentPrice,\n            \"Bid must be more than the current price, duh!\"\n        );\n        require(listing.auctionState == 1, \"This item is not open for bidding\");\n        listing.buyer = payable(msg.sender);\n        listing.currentPrice = _bidPrice;\n        // Call to approve weth transaction for value of bidprice is handled via front end\n        listing.bidCounter++;\n        emit Bid(_listingId, _bidPrice, listing.seller, listing.buyer);\n    }\n\n    function endAuction(uint256 _listingId) external nonReentrant {\n        Listing storage listing = listings[_listingId];\n        IERC721 nft = listing.nft;\n        require(\n            listing.currentPrice >= listing.reservePrice,\n            \"Reserve not met\"\n        );\n        require(\n            block.timestamp > listing.closingTime,\n            \"Auction is still running\"\n        );\n        require(\n            msg.sender == listing.buyer || msg.sender == listing.seller,\n            \"Action not authorized\"\n        );\n        if (weth.balanceOf(listing.buyer) < listing.currentPrice) {\n            revert(\n                \"Buyer does not wETH balance to cover the sale price, sale reverted\"\n            );\n            listing.auctionState = 3;\n            emit Reverted(_listingId, listing.seller, listing.buyer);\n        } else {\n            weth.transferFrom(\n                listing.buyer,\n                listing.seller,\n                listing.currentPrice * (1 - (feePercent / 100))\n            );\n            weth.transferFrom(\n                listing.buyer,\n                feeAccount,\n                listing.currentPrice * (feePercent / 100)\n            );\n            nft.safeTransferFrom(address(this), listing.buyer, listing.tokenId);\n            listing.auctionState = 2;\n            emit Bought(\n                listing.listingId,\n                listing.currentPrice,\n                listing.seller,\n                listing.seller\n            );\n        }\n    }\n\n    function cancelListing(uint256 _listingId) external nonReentrant {\n        Listing storage listing = listings[_listingId];\n        IERC721 nft = listing.nft;\n        require(\n            listing.auctionState == 1 || listing.auctionState == 3,\n            \"Action is not authorized\"\n        );\n        require(listing.seller == msg.sender);\n        nft.safeTransferFrom(address(this), listing.seller, listing.tokenId);\n        listing.auctionState = 2;\n        emit Reverted(_listingId, listing.seller, listing.buyer);\n    }\n}\n","sourcePath":"contracts/Marketplace.sol","deployment":{"address":"0x71493ac9F87aaC71260D8851CCB80bd41396C51E","chainid":"4","blockHeight":10607290}}